:1000000000308A00DF28000000000A108A100A1160
:10001000820731343234333434343534363437347F
:10002000383439342A343034233481308400801316
:10003000F3288C018D011708031018188C078C0CFD
:100040008D0C98188C078C0C8D0C18198C078C0C47
:100050008D0C98198C078C0C8D0C181A8C078C0C35
:100060008D0C981A8C078C0C8D0C181B8C078C0C23
:100070008D0C981B8C078C0C8D0C962895018E0A84
:1000800022300E02031CA22811088C000C08031950
:10009000522801300C020319562802300C020319B1
:1000A0005A285E287E30660086005E287D30660015
:1000B00086005E287B30660086005E280F1C6C2858
:1000C000060878398C0078300C02031D6B280F105D
:1000D000100895009001A128060878398C00783026
:1000E0000C0203199C28060808390038031D7A28D9
:1000F00096019128060810390038031D8228013026
:1001000096009128060820390038031D8A280230FD
:1001100096009128060840390038031D91280330C5
:100120009600160897000330980019280D0811074B
:10013000052090000F14A128910A03301102031921
:1001400091018E017F30660015088D000034163055
:10015000840000080319B92801308D008C018C0B34
:10016000AF288D0BAE2848308C008C0BB528800B47
:10017000AC28003408308D0083160510831205105A
:100180008D17CF288D13950C03180514031C05102B
:100190000D17CF280D138D0BC3280514CF28013060
:1001A0008C008401840BD2288C0BD1280E30840063
:1001B000840BD8288D1BC2280D1BCA28003484014B
:1001C00083018E010F109001910183160510831297
:1001D0000514920183168511831285118316051269
:1001E00083120516152812088C000C0803190D2916
:1001F00001300C020319162902300C0203195C2984
:1002000003300C020319752904300C0203199029DC
:1002100005300C020319A729AD2983160515831291
:10022000051D1529013092009301AD29831605158E
:10023000831205191D2900301E2901300038031DC5
:10024000232992015B293E200D089400940803198C
:100250005B2913088C000C080319372901300C02A4
:1002600003193C2902300C0203194B295B29313058
:1002700014020319930A5B2932301402031D422928
:10028000930A4A2931301402031D482901304929B3
:10029000003093005B2933301402031D52290230D1
:1002A00092005A2931301402031D5829013059296E
:1002B000003093005B29AD298316851183128515C3
:1002C00008309500FA309600A720950B6229831616
:1002D00005128312051201309600A720831605121D
:1002E0008312051603309200AD298316051583127B
:1002F00005197C2900307D2901300038031D832930
:10030000043092008F293E200D08940094080319B0
:100310008F2914089500BA200D309500BA20AD2918
:100320009401143014020318A42921309500BA2036
:100330000D309500BA2004309500FA309600A720C1
:10034000950B9D29940A912905309200AD298316B9
:0E0350008511831285119201AD29F3286300F7
:00000001FF
;PIC16C84
